S014000042727573686C6573734553432E737265637A
S113000019C033C032C031C030C02FC02EC02DC083
S11300102CC02BC07AC0D0C155C427C026C025C06F
S113002024C0C7C022C021C020C053C01EC0ACC45D
S11300301CC01BC011241FBECFEFD4E0DEBFCDBF58
S113004011E0A0E0B1E0ECE7FAE002C005900D9207
S1130050A632B107D9F721E0A6E2B1E001C01D92B2
S1130060A137B207E1F791D107C5CACF81E08093E8
S11300707F0080E480937B008AE980BF089580B785
S11300808F7780BF089580B7806880BF089500B6D9
S113009007FE089590917C00907E982B90937C00AD
S11300A0089589E080937A0010927B0081E0809328
S11300B07E0080E480937C000895EAE7F0E080818C
S11300C0806880830895EAE7F0E080818F778083F9
S11300D008951F920F920FB60F9211240F900FBE26
S11300E00F901F90189510926F001092800010923C
S11300F0820082EC8093810020980895B59AEFE6FF
S1130100F0E080818062808308951F920F920FB681
S11301100F9211242F933F934F936F937F938F9359
S11301209F93EF93FF934FB7F8948091860090913B
S11301308700E1E8F0E0208130E423272083B59AAA
S11301402091260130912701BC01621B730B70932F
S113015029016093280190932701809326014FBFC2
S1130160FF91EF919F918F917F916F914F913F916B
S11301702F910F900FBE0F901F9018951092B300FF
S11301801092B20081E28093B00088E08093B100C5
S1130190539A0895E1EBF0E090819E7F90839081E3
S11301A0982B908308958093B300089580EC8CBDC0
S11301B008951F920F920FB60F9211242F933F931D
S11301C04F935F936F937F938F939F93AF93BF935B
S11301D0EF93FF9380913A0181116CC08EB58093A7
S11301E039018091390190914401891709F4A3C020
S11301F090914701891709F4A1C090914A01891788
S113020009F49FC090914D01891709F49DC0909104
S11302105001891709F49BC090915301891709F47F
S113022099C090915601891709F497C0909159018A
S1130230891709F495C090915C01891709F493C05A
S113024090915F01891709F491C090916201891717
S113025009F48FC090916501891709F48DC09091BC
S11302606801891709F48BC090916B01891709F40F
S113027089C08EE090E021E020933A01FC01EE0F6A
S1130280FF1FE80FF91FEC5BFE4F81818111109273
S11302903801FF91EF91BF91AF919F918F917F9121
S11302A06F915F914F913F912F910F900FBE0F90DF
S11302B01F90189540917201809138018417D0F4F1
S11302C0E0913801F0E08EB5E25DFE4F80838091CD
S11302D038018F5F80933801809138014813D9CF5A
S11302E0809139016EE271E065D0811121C01092D4
S11302F03A01CFCF90912D0180912C019817B0F441
S113030080912D01E0912A01F0912B01E80FF11D5C
S113031080818EBD80912D018F5F80932D019091FE
S11303202D0180912C019813B4CFE1CF1EBCB1CF25
S113033010922D01AECF80E090E09DCF81E090E05F
S11303409ACF82E090E097CF83E090E094CF84E06E
S113035090E091CF85E090E08ECF86E090E08BCF67
S113036087E090E088CF88E090E085CF89E090E056
S113037082CF8AE090E07FCF8BE090E07CCF8CE06E
S113038090E079CF8DE090E076CF70DE8ADEABDE50
S1130390F5DE0CDF04D00AD00CD00BD0FDCF8BB12E
S11303A088748BB98AB1876B8AB90895A7DE80E017
S11303B0F1CE089580E008951F920F920FB60F9228
S11303C011242F933F934F935F936F937F938F9356
S11303D09F93AF93BF93CF93DF93EF93FF9380915A
S11303E03C01823009F434C108F043C0882371F120
S11303F0813009F022C182E080933C0110924301D4
S11304008AB18D7C83609BB1987493609BB98AB9DF
S1130410E0914301F0E0EE0FFF1FE65FFE4F8081A5
S1130420C2DEE0914301F0E0EE0FFF1FE65FFE4FF6
S1130430818190E02FB7F89490938900809388008D
S11304402FBF80916F00826080936F00FF91EF91C6
S1130450DF91CF91BF91AF919F918F917F916F91D8
S11304605F914F913F912F910F900FBE0F901F906E
S11304701895833009F486C1843009F0DEC0C09138
S1130480420181E08C0F8093420180E08CDEAAB1AE
S11304909BEAC99F912D112496959695892F880FD3
S11304A0890F880FC81B2C2F30E0220F331FF9014E
S11304B0EA5EFE4FE0816E2F617081E090E0EC0116
S11304C002C0CC0FDD1F6A95E2F7BE01E3FB4427AF
S11304D040F9EC0102C0CC0FDD1F4A95E2F7F62F7C
S11304E0FC2BAD7CFA2BE6FB442740F9BC0102C08F
S11304F0660F771F4A95E2F7F62BABB1E2FB66274E
S113050060F9EC0102C0CC0FDD1F6A95E2F7BE0171
S1130510E5FB442740F9EC0102C0CC0FDD1F4A95EE
S1130520E2F7AE01462BA8744A2BD901A95EBE4F4F
S11305302C912170BC0102C0660F771F2A95E2F747
S1130540462BE1FB222720F9EC0102C0CC0FDD1F72
S11305502A95E2F74C2BE4FB222720F9BC0102C0C8
S1130560660F771F2A95E2F7462BE7FBEE27E0F9A3
S11305700E2E01C0880F0A94EAF7482B4BB9FAB93A
S11305802FB7F89480918400909185002FBF9093A9
S113059009018093080180913D0190913E012FB79C
S11305A0F89490938900809388002FBF80916F0006
S11305B0826080936F00809104019091050124E68C
S11305C0289FB001299F700D112480E090E06C50A9
S11305D07E4F8F4F9F4F28EE33E040E050E02AD209
S11305E080910401909105016091080170910901C5
S11305F0860F971F821B930B909303018093020134
S11306008091020190910301220F331F280F391F9B
S11306103093010120930001809102019091030124
S11306202FB7F89490938B0080938A002FBF80910A
S11306306F00846080936F0009CF8AB18D7C8260E3
S11306409BB1987491609BB98AB910923C01FECE1B
S1130650E0914301EF5FE0934301E53009F42EC1DB
S1130660C091420181E08C0F80934201F0E0EE0FD3
S1130670FF1FE65FFE4F808196DDAAB19BEAC99F0A
S1130680912D112496959695892F880F890F880F9F
S1130690C81B2C2F30E0220F331FF901EA5EFE4FF6
S11306A0E0816E2F617081E090E0AC0102C0440FE4
S11306B0551F6A95E2F7BA01E3FB442740F9EC01C0
S11306C002C0CC0FDD1F4A95E2F7F62FFC2BAD7C60
S11306D0FA2BE6FB442740F9BC0102C0660F771FE2
S11306E04A95E2F7F62BABB1E2FB662760F9EC0121
S11306F002C0CC0FDD1F6A95E2F7BE01E5FB44277B
S113070040F9EC0102C0CC0FDD1F4A95E2F7AE01BF
S1130710462BA8744A2BD901A95EBE4F2C91217097
S1130720BC0102C0660F771F2A95E2F7462BE1FB56
S1130730222720F9EC0102C0CC0FDD1F2A95E2F735
S11307404C2BE4FB222720F9BC0102C0660F771F63
S11307502A95E2F7462BE7FBEE27E0F90E2E01C0BF
S1130760880F0A94EAF7482B4BB9FAB92FB7F894D3
S113077080918400909185002FBF9093090180930C
S113078008014FCEC091420181E08C0F8093420159
S1130790E0914301F0E0EE0FFF1FE65FFE4F808122
S11307A002DDAAB19BEAC99F912D112496959695D5
S11307B0892F880F890F880FC81B2C2F30E0220F38
S11307C0331FF901EA5EFE4FE0816E2F617081E014
S11307D090E0EC0102C0CC0FDD1F6A95E2F7BE0188
S11307E0E3FB442740F9EC0102C0CC0FDD1F4A951E
S11307F0E2F7F62FFC2BAD7CFA2BE6FB442740F9FD
S1130800BC0102C0660F771F4A95E2F7F62BABB125
S1130810E2FB662760F9EC0102C0CC0FDD1F6A958C
S1130820E2F7BE01E5FB442740F9EC0102C0CC0F1E
S1130830DD1F4A95E2F7AE01462BA8744A2BD90175
S1130840A95EBE4F2C912170BC0102C0660F771FB8
S11308502A95E2F7462BE1FB222720F9EC0102C09E
S1130860CC0FDD1F2A95E2F74C2BE4FB222720F95D
S1130870BC0102C0660F771F2A95E2F7462BE7FBFF
S1130880EE27E0F901C0880FEA95EAF7482B4BB947
S1130890FAB92FB7F89480918400909185002FBF06
S11308A09093090180930801E0914301F0E0EE0F79
S11308B0FF1FE65FFE4F818190E071CE83E080935D
S11308C03C01CECE1F920F920FB60F9211242F939C
S11308D03F934F935F936F937F938F939F93AF93C4
S11308E0BF93EF93FF9380913B01882361F18130A3
S11308F0C9F4C9DBE2DB80916F008B7F80936F00CA
S113090010923B01E0914201F0E0EE0FFF1FE95E1F
S1130910FE4FE081E295E370F0E0E15CFE4F808100
S11309208F5F8083FF91EF91BF91AF919F918F91E2
S11309307F916F915F914F913F912F910F900FBED7
S11309400F901F901895BFDBE0914201F0E0EE0F8D
S1130950FF1FE95EFE4F80818695877098DB8FDBF1
S113096081E080933B0180910001909101012FB7B8
S1130970F89490938B0080938A002FBF80916F002E
S1130980846080936F00CECF1F920F920FB60F92A8
S113099011242F933F938F939F93EF93FF93809111
S11309A03C018350823058F0FF91EF919F918F91D9
S11309B03F912F910F900FBE0F901F9018952FB756
S11309C0F89480918400909185002FBF9093070143
S11309D08093060180916F008B7F80936F008091DC
S11309E00601909107012091080130910901821BB1
S11309F0930B90930501809304012091060130919B
S1130A0007018091040190910501820F931F909337
S1130A103E0180933D01E0914201F0E0EE0FFF1FA3
S1130A20E95EFE4FE081E295E370F0E0E15CFE4FA9
S1130A301082BACFA1E21A2EAA1BBB1BFD010DC066
S1130A40AA1FBB1FEE1FFF1FA217B307E407F5077A
S1130A5020F0A21BB30BE40BF50B661F771F881F56
S1130A60991F1A9469F760957095809590959B01EC
S10F0A70AC01BD01CF010895F894FFCF44
S1130A7CFF00FF00FF00FF00FF003264335A3550C3
S1130A8C3746393C3C32681C45004129291C0D0071
S1090A9C48296D194918F8
S9030000FC
