S014000042727573686C6573734553432E737265637A
S113000019C033C032C031C030C02FC02EC02DC083
S11300102CC02BC07AC01EC257C327C026C025C01F
S113002024C0DEC022C021C020C053C01EC0A5C34E
S11300301CC01BC011241FBECFEFD4E0DEBFCDBF58
S113004011E0A0E0B1E0EAE7F8E002C005900D920B
S1130050A632B107D9F721E0A6E2B1E001C01D92B2
S1130060A137B207E1F740D106C4CACF81E080933B
S11300707F0080E480937B008AE980BF089580B785
S11300808F7780BF089580B7806880BF089500B6D9
S113009007FE06C0ECE7F0E09081907E892B808318
S11300A0089589E080937A0010927B0081E0809328
S11300B07E0080E480937C000895EAE7F0E080818C
S11300C0806880830895EAE7F0E080818F778083F9
S11300D008951F920F920FB60F9211240F900FBE26
S11300E00F901F90189510926F001092800010923C
S11300F0820082EC8093810020980895B59AEFE6FF
S1130100F0E080818062808308951F920F920FB681
S11301100F9211242F933F934F936F937F938F9359
S11301209F93EF93FF934FB7F8948091860090913B
S11301308700E1E8F0E0308120E423272083B59AAA
S11301402091260130912701BC01621B730B70932F
S113015029016093280190932701809326014FBFC2
S1130160FF91EF919F918F917F916F914F913F916B
S11301702F910F900FBE0F901F9018951092B300FF
S11301801092B20081E28093B00088E08093B100C5
S1130190539A0895E1EBF0E090819E7F90839081E3
S11301A0892B808308958093B300089580EC8CBDDF
S11301B00895482F80E090914401941781F08F5F57
S11301C0282F30E0F901EE0FFF1F2E0F3F1FF9011A
S11301D0EC5BFE4F9081941711F08F3081F70895F6
S11301E01F920F920FB60F9211242F933F934F93A8
S11301F05F936F937F938F939F93AF93BF93EF938B
S1130200FF9380913A0181111CC08EB5809339010E
S113021080913901CEDF8F3009F455C091E090937D
S11302203A0190E0FC01EE0FFF1F8E0F9F1FFC01AF
S1130230EC5BFE4F8181882309F445C0109238019C
S113024042C040914501809138018417E8F4E0915F
S11302503801F0E08EB5E25DFE4F80838091380175
S11302608F5F809338018091380148132CC08091AE
S113027039016EE271E0EDD0811103C010923A01B0
S113028022C010922D011FC090912D0180912C014C
S11302909817C0F480912D01E0912A01F0912B016F
S11302A0E80FF11D80818EBD80912D018F5F8093B9
S11302B02D0190912D0180912C01981304C010926E
S11302C03A0101C01EBCFF91EF91BF91AF919F9184
S11302D08F917F916F915F914F913F912F910F90EB
S11302E00FBE0F901F901895C1DEDBDEFCDE46DFEB
S11302F05DDF25D02BD02ED0FECF2FB7F89490936E
S11303008900809388002FBFEFE6F0E0808182604F
S1130310808308952FB7F89490938B0080938A007C
S11303202FBFEFE6F0E080818460808308952FB7CB
S1130330F89480918400909185002FBF08958BB12B
S113034088748BB98AB1876B8AB90895D7DE80E047
S113035021DF08950895CF93DF93BAB190E0880F19
S1130360991FFC01EA5EFE4FA0814A2F417021E0F3
S113037030E0B90102C0660F771F4A95E2F7AB017E
S1130380A3FB662760F9E90102C0CC0FDD1F6A9563
S1130390E2F7BE01642BBD7CB62BA6FB442740F9D3
S11303A0F90102C0EE0FFF1F4A95E2F7BE2B4BB1D5
S11303B0A2FB662760F9E90102C0CC0FDD1F6A9534
S11303C0E2F7BE01A5FBEE27E0F9E90102C0CC0F7C
S11303D0DD1FEA95E2F76C2B4874462BFC01E95EBD
S11303E0FE4F60816170F90102C0EE0FFF1F6A9534
S11303F0E2F7BF01642BA1FB442740F9C90102C005
S1130400880F991F4A95E2F7AC01462BA4FB882775
S113041080F9E90102C0CC0FDD1F8A95E2F7CE0115
S1130420842BA7FBAA27A0F902C0220F331FAA9589
S1130430E2F7282B2BB9BAB9DF91CF91089588231D
S113044019F087E088DF02C086E085DF10923C0166
S1130450089508951F920F920FB60F9211242F93AF
S11304603F934F935F936F937F938F939F93AF9338
S1130470BF93CF93DF93EF93FF9380913C0182303E
S113048011F130F4882309F40CC1813041F007C123
S1130490833009F44CC0843009F4ABC000C182E05D
S11304A080933C011092430181E055DF82E37BDEBF
S11304B0E0914301F0E0EE0FFF1FE65FFE4F818104
S11304C090E01BDFEEC0E0914301EF5FE093430156
S11304D0E53019F483E080933C01C091420181E04E
S11304E08C0F80934201F0E0EE0FFF1FE65FFE4F9A
S11304F0808159DE8BEAC89F812D112486958695CB
S1130500982F990F890F880FC81B8C2F24DF0FDFBA
S11305109093090180930801E0914301F0E0EE0F0C
S1130520FF1FE65FFE4F818190E0E7DEBAC0C09115
S1130530420181E08C0F80934201E0914301F0E09D
S1130540EE0FFF1FE65FFE4F80812DDE8BEAC89F12
S1130550812D112486958695982F990F890F880FE0
S1130560C81B8C2FF8DEE3DEEC0190930901809325
S11305700801E0914301F0E0EE0FFF1FE65FFE4F3C
S1130580818190E0BADE809104019091050124E616
S1130590289FB001299F700D1124CB01A0E0B0E089
S11305A0BC01CD016C507E4F8F4F9F4F28EE33E03E
S11305B040E050E03ED18091040190910501821BFE
S11305C0930BC80FD91FD0930301C09302018091EC
S11305D0020190910301220F331F280F391F30931A
S11305E0010120930001809102019091030192DEA8
S11305F058C0C091420181E08C0F8093420180E099
S1130600D2DD8BEAC89F812D112486958695982F7B
S1130610990F890F880FC81B8C2F9DDE88DEEC0193
S1130620909309018093080180913D0190913E01CE
S113063064DE809104019091050124E6289FB001B5
S1130640299F700D1124CB01A0E0B0E0BC01CD01C5
S11306506C507E4F8F4F9F4F28EE33E040E050E0C8
S1130660E8D08091040190910501821B930BC80F7F
S1130670D91FD0930301C09302018091020190918C
S11306800301220F331F280F391F309301012093D8
S1130690000180910201909103013CDE02C081E0DF
S11306A0CEDEFF91EF91DF91CF91BF91AF919F91FA
S11306B08F917F916F915F914F913F912F910F9007
S11306C00FBE0F901F9018951F920F920FB60F92A6
S11306D011242F933F934F935F936F937F938F9343
S11306E09F93AF93BF93EF93FF9380913B01882334
S11306F019F08130B9F030C0E6DCE0914201F0E05D
S1130700EE0FFF1FE95EFE4F808186958770BFDC88
S1130710B6DC81E080933B0180910001909101015E
S1130720F9DD1AC0B0DCC9DCEFE6F0E080818B7F34
S1130730808310923B01E0914201F0E0EE0FFF1F35
S1130740E95EFE4FE081E295EF70E370F0E0E15C7A
S1130750FE4F80818F5F8083FF91EF91BF91AF91B6
S11307609F918F917F916F915F914F913F912F91C5
S11307700F900FBE0F901F9018951F920F920FB6F7
S11307800F9211242F933F934F935F936F937F9313
S11307908F939F93AF93BF93EF93FF9380913C010B
S11307A083508230A8F5C3DD90930701809306013E
S11307B0EFE6F0E080818B7F808380910601909149
S11307C007012091080130910901821B930B90933A
S11307D00501809304018091060190910701209105
S11307E0040130910501820F931F90933E01809381
S11307F03D01E0914201F0E0EE0FFF1FE95EFE4F84
S1130800E081E295EF70E370F0E0E15CFE4F10826E
S1130810FF91EF91BF91AF919F918F917F916F91D4
S11308205F914F913F912F910F900FBE0F901F90AA
S11308301895A1E21A2EAA1BBB1BFD010DC0AA1F0D
S1130840BB1FEE1FFF1FA217B307E407F50720F035
S1130850A21BB30BE40BF50B661F771F881F991FB0
S11308601A9469F760957095809590959B01AC01F9
S10D0870BD01CF010895F894FFCFF5
S113087AFF00FF00FF00FF00FF003264335A3550C7
S113088A3746393C3C32681C45004129291C0D0075
S109089A48296D194918FC
S9030000FC
